:100000000C9429000C9451000C9451000C94510054
:100010000C9451000C9451000C9451000C9451001C
:100020000C9451000C9451000C9451000C94B101AB
:100030000C94FB010C9451000C9451000C94510051
:100040000C9451000C9451000C9451000C945100EC
:100050004A0211241FBECFEFD2E0DEBFCDBF21E0A8
:10006000A4E1B1E001C01D92A135B207E1F711E0B2
:10007000A0E0B1E0E0EAFBE002C005900D92A431FF
:10008000B107D9F710E0C9E2D0E004C02197FE0122
:100090000E942005C832D107C9F70E9463020C9460
:1000A000CE050C9400003FB7F89480913D019091EB
:1000B0003E01A0913F01B091400127B5A89B05C02A
:1000C0002F3F19F00196A11DB11D3FBFBA2FA92FD7
:1000D000982F8827820F911DA11DB11DBC01CD0154
:1000E00042E0660F771F881F991F4A95D1F7089540
:1000F0000895CF92DF92EF92FF920F931F93CF93C9
:10010000DF936C01EB017B01E40EF51E00E010E0D3
:10011000CE15DF0561F06991D601ED91FC9101905A
:10012000F081E02DC6010995080F191FF1CFC80114
:10013000DF91CF911F910F91FF90EF90DF90CF90C3
:100140000895FF920F931F93CF93DF938C01F62EA8
:10015000DC011E96ED91FC911F97C089D0E021969D
:10016000CF70DD27D801ED91FC910484F585E02D59
:10017000C8010995892BB1F3D8011E96ED91FC9128
:100180001F978089E80FF11DF0821E96ED91FC917A
:100190001F97C08B8091CA0081FD13C08091CA0057
:1001A00082608093CA008091250190E0FC01EC5EA2
:1001B000FE4F208101968F7099278093250120930F
:1001C000D20081E090E0DF91CF911F910F91FF90DD
:1001D0000895DC011E96ED91FC911F97508941898D
:1001E000252F30E0842F90E0821B930B541710F0E2
:1001F0000F96089501970895DC011E96ED91FC91EC
:100200001F97908981899813FECF0895DC011C9671
:10021000ED91FC911D9721898089821761F030E072
:10022000DF01A20FB31F8C912F5F3F4F2F70332739
:10023000218B90E008958FEF9FEF0895DC011C96CD
:10024000ED91FC911D9781899089981729F0E80F0D
:10025000F11D808190E008958FEF9FEF0895DC01FC
:100260001C96ED91FC911D97808990E04096218924
:10027000821B91098F709927089585B5836085BD8C
:1002800085B5806885BD86B5816086BD0895F9997C
:10029000FECF90E092BD81BDF89A80B50895F9999E
:1002A000FECF1FBA90E092BD81BD60BDFA9AF99A67
:1002B00008958F929F92AF92BF92EF92FF920F9309
:1002C0001F93CF93DF93CDB7DEB7A1970FB6F89406
:1002D000DEBF0FBECDBF162F042F19A2423008F487
:1002E0000AE07E0121E2E20EF11C802E912CA12C6D
:1002F000B12C612FA50194010E94FE04802F622F72
:100300000E94E404181B81E0E81AF1081A3014F482
:10031000105D01C0195CF7011083122F732FCA0101
:10032000232B242B252B29F701900020E9F7319767
:10033000AF014E195F09B70181E491E00E94790095
:10034000A1960FB6F894DEBF0FBECDBFDF91CF915F
:100350001F910F91FF90EF90BF90AF909F908F9063
:1003600008951F920F920FB60F9211242F933F936F
:100370008F939F93AF93BF938091390190913A01EE
:10038000A0913B01B0913C013091380123E0230F53
:100390002D3730F026E8230F0296A11DB11D03C0B2
:1003A0000196A11DB11D20933801809339019093CE
:1003B0003A01A0933B01B0933C0180913D019091A3
:1003C0003E01A0913F01B09140010196A11DB11DD8
:1003D00080933D0190933E01A0933F01B093400173
:1003E000BF91AF919F918F913F912F910F900FBE31
:1003F0000F901F9018951F920F920FB60F92112415
:100400002F933F934F935F938F939F93EF93FF931C
:100410008091C90080FF14C04091D20080913601C4
:1004200090E09C012F5F3F4F2F7033275091370191
:10043000521731F0FC01EA5DFE4F408320933601F4
:100440008091C90081FF19C0059A80912501909182
:100450002401981306C08091CA008D7F8093CA0042
:100460000CC090E0FC01EC5EFE4F208101968F7085
:100470009927809325012093D200FF91EF919F91BE
:100480008F915F914F913F912F910F900FBE0F90E1
:100490001F901895E1E4F1E01382128288EE93E058
:1004A000A0E0B0E084839583A683B78384E091E0E5
:1004B0009183808386E291E09587848784E191E04F
:1004C000978786870895CF93DF9300D000D000D020
:1004D000CDB7DEB784B1836084B985B18C6085B94E
:1004E00080E00E9447018D8381E00E94470189835B
:1004F00080E88093C80087E690E09093CE008093D8
:10050000CD0080E98093CC008FE08093C80080917B
:10051000CA0081608093CA002D812F3F21F463E0DF
:1005200080E00E944F0139813F3F21F462E081E089
:100530000E944F0181E00E944701898380E00E9470
:1005400047011A9B31C0299A90E068EE73E00E943F
:10055000ED049C01009741F0EFE9FFE03197F1F7DE
:1005600000C000000197F6CF2998F9818F2F90E005
:1005700068EE73E00E94ED04009741F0EFE9FFE0C0
:100580003197F1F700C000000197F6CF299A2115A5
:10059000310549F08FE99FE00197F1F700C00000B5
:1005A00021503109F4CF29980E943D0180E888BD8F
:1005B00022242A9480917C008F6080937C0080911B
:1005C0007C00806880937C0080917A0080688093B2
:1005D0007A000E9453007A83698384E1C82ED12C6B
:1005E000E12CF12C0E945300E981FA816E1B7F0BF4
:1005F000683E7340B8F321E0C21AD108E108F1085F
:1006000089819A8188519C4F9A838983C114D1042E
:10061000E104F10439F780917A00806480937A00D4
:1006200080917A0086FDFCCF8091790060917800FE
:1006300070E0782B072E000C880B990B0E94BF03EB
:1006400026EF38E24CE95FE30E941E0420E030E030
:1006500046E953E40E9427050E949A0569837A833C
:100660008B839C83E981FA81BF0180E090E00E9446
:10067000BD034B015C012AE037ED43EA5BE30E94D6
:1006800027056B017C010E949A052B013C010E9409
:10069000BD039B01AC01C701B6010E9426056B0199
:1006A0007C014AE0C301B2010E94590141E050E0DF
:1006B00062E171E081E491E00E947900F3E0FD8362
:1006C0002D8121502D832223B9F120E030E040E23A
:1006D00051E4C701B6010E941E042B013C010E9497
:1006E00093056B01770FEE08FF081C2DDE820E2D9F
:1006F0003F2CF7FE0DC06DE281E491E00E94A10065
:10070000F094E094D094C094C11CD11CE11CF11C65
:100710004AE0C701B6010E945901612F7E81802FF6
:10072000932D0E94BF039B01AC01C301B2010E9443
:1007300026056B017C01C4CF6DE081E491E00E944D
:10074000A1006AE081E491E00E94A10020E030E095
:100750004CE852E4C501B4010E94C90587FD08C0F8
:100760000E943D0128BC698182E00E944F0122CF96
:100770000E943D0130E838BD1DCFE89409C097FBC9
:100780003EF490958095709561957F4F8F4F9F4F68
:100790009923A9F0F92F96E9BB279395F6958795AC
:1007A00077956795B795F111F8CFFAF4BB0F11F46F
:1007B00060FF1BC06F5F7F4F8F4F9F4F16C0882316
:1007C00011F096E911C0772321F09EE8872F762F4C
:1007D00005C0662371F096E8862F70E060E02AF08D
:1007E0009A95660F771F881FDAF7880F9695879579
:1007F00097F90895990F0008550FAA0BE0E8FEEF4E
:1008000016161706E807F907C0F012161306E407D4
:10081000F50798F0621B730B840B950B39F40A26CD
:1008200061F0232B242B252B21F408950A2609F4AB
:10083000A140A6958FEF811D811D08950E9430046F
:100840000C94AA040E949C0438F00E94A30420F097
:10085000952311F00C9493040C9499040C94DE04E9
:100860000E94BB0478F39923C9F35523B9F3950F7C
:1008700050E0551FAA27EE27FF27BB270024089426
:10088000679520F4E20FF31FB41F0A1E220F331FD7
:10089000441FAA1F6695A9F7779530F4F30FB41F8C
:1008A0000A1E121E08F46395330F441FAA1F221F4D
:1008B000769599F7879520F4B40F0A1E121E631FD0
:1008C000440FAA1F221F331F8695A9F7862F712D6B
:1008D000602D11249F5750409AF0F1F088234AF080
:1008E000EE0FFF1FBB1F661F771F881F91505040E0
:1008F000A9F79E3F510580F00C9493040C94DE04FC
:100900005F3FE4F3983ED4F3869577956795B79566
:10091000F795E7959F5FC1F7FE2B880F911D969580
:10092000879597F9089597F99F6780E870E060E0F0
:1009300008959FEF80EC089500240A941616170678
:1009400018060906089500240A94121613061406C0
:1009500005060895092E0394000C11F4882352F023
:10096000BB0F40F4BF2B11F460FF04C06F5F7F4FDB
:100970008F4F9F4F089557FD9058440F551F59F0C2
:100980005F3F71F04795880F97FB991F61F09F3F7C
:1009900079F087950895121613061406551FF2CFA5
:1009A0004695F1DF08C0161617061806991FF1CFF5
:1009B00086957105610508940895E894BB2766271C
:1009C0007727CB0197F90895002480FD060E660F66
:1009D00011F08695D1F7802D08950024552704C085
:1009E000080E591F880F991F009729F07695679573
:1009F000B8F37105B9F7802D952F0895A1E21A2E4D
:100A0000AA1BBB1BFD010DC0AA1FBB1FEE1FFF1FB2
:100A1000A217B307E407F50720F0A21BB30BE40B02
:100A2000F50B661F771F881F991F1A9469F7609549
:100A30007095809590959B01AC01BD01CF01089503
:100A4000EE0FFF1F0590F491E02D09945058BB273D
:100A5000AA270E943E050C94AA040E949C0438F028
:100A60000E94A30420F039F49F3F19F426F40C945B
:100A700099040EF4E095E7FB0C949304E92F0E948F
:100A8000BB0458F3BA17620773078407950720F071
:100A900079F4A6F50C94DD040EF4E0950B2EBA2F34
:100AA000A02D0B01B90190010C01CA01A001112474
:100AB000FF27591B99F0593F50F4503E68F11A1620
:100AC000F040A22F232F342F4427585FF3CF4695B1
:100AD00037952795A795F0405395C9F77EF41F16D3
:100AE000BA0B620B730B840BBAF09150A1F0FF0F9D
:100AF000BB1F661F771F881FC2F70EC0BA0F621F89
:100B0000731F841F48F4879577956795B795F79578
:100B10009E3F08F0B0CF9395880F08F09927EE0F0D
:100B20009795879508950E949A056894B1110C9441
:100B3000DE0408950E94C30488F09F5798F0B92FEF
:100B40009927B751B0F0E1F0660F771F881F991F02
:100B50001AF0BA95C9F714C0B13091F00E94DD04C3
:100B6000B1E008950C94DD04672F782F8827B85FD3
:100B700039F0B93FCCF3869577956795B395D9F75A
:100B80003EF490958095709561957F4F8F4F9F4F64
:100B900008950E94FA0308F48FEF0895F894FFCFA8
:100BA00000000000A10079002F0106011E01FC00D9
:040BB000E9002E002A
:00000001FF
